:020000040800F2
:100000002005002045010008B7200008CB1A000891
:10001000B5200008030B0008A12300080000000021
:10002000000000000000000000000000E9210008BE
:10003000BD0B000800000000B9200008EB210008FB
:100040005F0100085F0100085F0100085F01000810
:100050005F0100085F0100085F0100085F01000800
:100060005F0100085F0100085F0100085F010008F0
:100070005F0100085F0100085F0100085F010008E0
:100080005F0100085F0100085F0100085F010008D0
:100090005F0100085F0100085F0100085F010008C0
:1000A0005F0100085F0100085F0100085F010008B0
:1000B0005F0100085F0100085F0100085F010008A0
:1000C0005F0100085F0100085F0100085F01000890
:1000D0005F0100085F0100085F0100085F01000880
:1000E0005F0100085F0100085F0100085F01000870
:1000F0005F0100085F0100085F0100085F01000860
:100100005F0100085F0100085F0100085F0100084F
:100110005F0100085F0100085F0100085F0100083F
:100120005F0100085F0100085F0100085F0100082F
:10013000DFF80CD000F082FC004800478542000840
:10014000200500200648804706480047FEE7FEE7F6
:10015000FEE7FEE7FEE7FEE7FEE7FEE7FEE7FEE777
:100160003D220008310100082DE9F0410024061B62
:10017000254671F1000605DA01240027D0EB0700BF
:1001800067EB0101161E73F1000605DA0027D2EBBA
:100190000702012567EB030300F0B3FA86460E461B
:1001A00017469C46AC4204D00025D0EB050E65EB0B
:1001B000010624B10020D2EB000760EB030C70466F
:1001C00031463A466346BDE8F081202A04DB203AF6
:1001D00021FA02F00021704721FA02F3D040C2F167
:1001E00020029140084319467047D2B201E000F85E
:1001F000012B491EFBD270470022F6E710B51346CB
:100200000A4604461946FFF7F0FF204610BD30B5F8
:1002100004460020034600E05B1C934203D2E05CEE
:10022000CD5C401BF8D030BDF0B480EA0102D40FA1
:100230004200B2EB410F02D20246084611464A0084
:1002400042D0C30DDDB2C1F3C752AD1A202D35DA4D
:10025000C1F3160141F4000204B15242C5F1200677
:1002600002FA06F12A411044B3EBD05F23D0C4B1A7
:10027000012DA0EBC35009DCF0BC4FF0004202EAB4
:10028000C352DBB200F5000000F096BA400000F166
:10029000807000EBC350A0F1807040EAD17049003B
:1002A00009E0490841EAC071A0EBC35000F5000025
:1002B000400800EBC350F0BC00F075BA6142012267
:1002C00002EB4101001BF6E7F0BC704781F00041F2
:1002D000AAE780F00040A7E780EA010210B502F02B
:1002E0000043400022D04A001FD0010E01EB1261F2
:1002F000C0F35600C2F3560240F4000042F400027C
:10030000A0FB022000047F39140400D0401C50EAF6
:10031000124001D44000491EC2B20C0604EBD010BA
:10032000401C4008802A02D003E0002010BD20F0CD
:100330000100002900DA0020184310BD30B480EA23
:10034000010202F0004530F0004221F0004013D0DD
:1003500090B1C30DD40DC2F31601C0F31600E41A18
:1003600041F4000140F400027D34914201D3641C49
:1003700000E04900002C02DA30BC002070474FF446
:1003800000000023914201D3891A034340084FEA39
:100390004101F7D151B1914202D14FF0004105E046
:1003A00002D24FF0010101E06FF0010103EBC450F4
:1003B000284430BC00F0F7B9420005D0C0F3C75262
:1003C0005242914201DC0020704700EBC15070475F
:1003D0002DE9FE4F804681EA0300C00F0C460090D5
:1003E00021F0004123F00045B8EB0200A94105D2FD
:1003F0004046214690461C460B46024623F00040EC
:10040000104347D0270DC7F30A00C3F30A510290E7
:10041000401A019040286BDAC3F3130040F4801BAC
:100420000098924620B10023D2EB030A63EB0B0B3A
:1004300001985946C0F14002504600F093F9064633
:100440000D4650465946019A00F09BF910EB080002
:100450006141002487EA115284EAE7731A4340D0CD
:10046000009A62B3019A012A4FEA075215DC001B79
:1004700061EB02014FF0004202EA0752CDE900426F
:10048000001C41F5801132462B4600F0D2F903B032
:10049000BDE8F08F40462146F9E7001B61EB020101
:1004A000001C41F5801300185B412018A2F50017CD
:1004B00047EB030140EAD570B6196D4111E06D08B4
:1004C0004FEA360645EAC0754FEA0752001B61EB5A
:1004D0000201001C41F5801149084FEA3000001963
:1004E000514132462B4603B0BDE8F04F00F092B9BF
:1004F0000098012240000023D0EB020263EBE0737E
:10050000009821464FEAE074B8EB000061EB04016B
:10051000E9E783F000435BE781F0004158E72DE90C
:10052000FE4F81EA030404F0004421F000410094EE
:100530004FF0000B23F0004350EA01045ED052EA72
:1005400003045BD0C3F30A54C1F30A552C44A4F24C
:10055000F3340194A0FB0254C1F3130141F4801160
:10056000C3F3130343F4801301FB024400FB034E67
:10057000840A970A44EA815447EA8357A4FB076830
:1005800002958D0A05FB07854FEA932C04FB0C545A
:100590002705029D4FEA065847EA1637B5EB0805CE
:1005A0006EEB070C870E920E47EA811742EA831220
:1005B000A7FB0201B6EB0B0164EB00042B0D43EA31
:1005C0000C335E1844EB1C50DA465146E7FB02013F
:1005D000C5F313044FEA0B3343EA14534FEA0432D2
:1005E000019C43EA0603A4F10C040294009CCDE9AB
:1005F00000B400F01EF903B0BDE8F08F0020014602
:10060000F9E7C10F80EAE0700844CA079623002189
:1006100000F0D2B896230022114600F0CDB800F0C9
:10062000004220F00040C10DC0F3160040F400006D
:100630007F2901DA00207047962903DCC1F1960179
:10064000C84001E096398840002AF4D04042704703
:1006500020F00040C10DC0F3160040F400007F29D7
:1006600001DA00207047962903DCC1F19601C840E9
:10067000704796398840704700F0004230F00040E3
:100680000AD0C10D01F56071C0F3160042EA0151B4
:10069000C20840071143704700200146704701F02F
:1006A000004330B421F0004150EA010206D00A0DA7
:1006B000A2F56072C1F31301002A02DC30BC0020F5
:1006C0007047440F44EAC104C100E01830BC00EB9D
:1006D000C25000F068B830B50B4601460020202219
:1006E000012409E021FA02F59D4205D303FA02F53F
:1006F000491B04FA02F52844151EA2F10102F1DC9F
:1007000030BD2DE9F05F0546002092469B468846A5
:100710000646814640241BE028464146474622467D
:10072000FFF753FD53465A46C01A914110D3114664
:100730001846224600F016F82D1A67EB01084F46BE
:1007400022460120002100F00DF817EB00094E4170
:10075000201EA4F10104DFDC484631462A46434608
:10076000BDE8F09F202A04DB203A00FA02F10020C5
:1007700070479140C2F1200320FA03F319439040DF
:100780007047202A06DBCB17203A41FA02F043EAF1
:10079000E07306E041FA02F3D040C2F1200291403A
:1007A0000843194670470029A8BF7047401C4900FC
:1007B00008BF20F00100704710B4B0FA80FC00FAC6
:1007C0000CF050EA010404BF10BC704749B1CCF1F1
:1007D000200421FA04F411FA0CF118BF012121437D
:1007E0000843A3EB0C01CB1D4FEA00614FEA102038
:1007F00042BF002010BC704700EBC35010440029DA
:10080000A4BF10BC7047401C490008BF20F0010085
:1008100010BC704710B5141E73F1000408DA401CB8
:1008200041F1000192185B411A4301D120F001000F
:1008300010BD2DE9F04D92469B4611B1B1FA81F2FF
:1008400002E0B0FA80F220329046FFF78BFF0446B8
:100850000F4640EA0A0041EA0B0153465A46084354
:1008600013D0114653EA010019D0C8F14002504696
:10087000FFF7ABFC05460E46504659464246FFF789
:1008800071FF084305D0012004E020463946BDE849
:10089000F08D0020054346EAE0762C4337430A9862
:1008A0006305E40AA0EB08000022FD0A44EA47546D
:1008B0000A3002D500200146E9E701051019694117
:1008C000DDE9084500196941BDE8F04DA2E72DE9D1
:1008D000F04D81EA030404F0004B21F0004514467A
:1008E0004FF0000A23F0004150EA050220D054EAFC
:1008F00001021DD0C5F30A570246C5F31303C1F325
:100900001300C1F30A5640F4801543F48013A7EB9B
:100910000608101BD64608F2FD3873EB050002D31B
:1009200008F1010801E092185B41B8F1000F03DA09
:1009300000200146BDE8F08D00204FF480110646EE
:1009400084460EE0171B73EB050705D3121B63EB00
:10095000050306434CEA010C49084FEA300092189F
:100960005B4150EA0107EDD152EA030012D082EA5E
:10097000040083EA0501084305D0101BAB4106D2F1
:100980000122002306E000224FF0004302E06FF056
:10099000010253101AEB06004CEB085110EB0A0051
:1009A00041EB0B01BDE8F04DFFF734BF70B521F00E
:1009B000004303430CD0C1F30A550024D5EB0405D2
:1009C00064EB0403D617AD1AB34102DB00200146E5
:1009D00070BD201841EB025170BDC1F30A52C1F342
:1009E000130140F2FF3341F480119A4202DA0020F1
:1009F0000146704740F233439A42A2F2334202DC8E
:100A00005242FFF7E2BBFFF7ADBE000030B5041E57
:100A100071F1000404DB4FF00044404264EB01013B
:100A2000141E73F1000405DB1C464FF000435242D4
:100A300063EB0403994208BF904230BD064C074D5A
:100A400006E0E06840F0010394E80700984710349E
:100A5000AC42F6D3FFF770FBE85D0008085E0008C3
:100A60002DE9F04D00231A461B1A8A4103DB0020B2
:100A70000146BDE8F08DC1F30A52C1F3130141F400
:100A800080154FF0000BD10702D100186D41521EA6
:100A90000027044640F2FF11384601EB620A3E4649
:100AA0008046024600204FF48011FFF78EFBC219EA
:100AB0007141BB1846EB0100B4EB030C75EB000C65
:100AC00004D3E41A65EB000517460E46241908F115
:100AD00001006D4180463428E3DDF91946EB06003C
:100AE000091BA84103D24FF0FF32134601E0002258
:100AF00013461BEB070046EB0A51BDE8F04DFFF72C
:100B000089BEFEE7F8B5002000906B4601227521F2
:100B1000D02001F0BDF99DF8000068280CD0BFF38B
:100B20004F8F23480168234A01F4E06111430160BB
:100B3000BFF34F8F00BFFDE703F0B0FC002836D1B4
:100B4000782004F069F9012540BB782003F0D8FB38
:100B500020BBC82004F020F900BB02F0C1FDE8B9B9
:100B60001548044603F06AFB0646E01C03F066FBEA
:100B700046EAC006A01D03F061FB46EA801080B281
:100B800002F05EFF50B940F2731002F081FC28B908
:100B9000C82002F0BDFE08B98DF8005004F0C3F97A
:100BA000012004F01FF8002801D18DF80050F8BD95
:100BB0000CED00E00400FA05540000207047704777
:100BC00070B5044600F00AF90546601C02D00448DE
:100BD0000078044400F002F9401BA042FAD370BD33
:100BE000600000202DE9F84FDFF8C891002409F1DA
:100BF000040A0AF1040B23460F270BF1040ED1E07F
:100C00000125A54006EA0502AA4276D1DFF8A8C16F
:100C10004E68A6EB0C0866452BD00DDC032E34D0B5
:100C200005DC36B3012E19D0022E2FD11BE0112E78
:100C300016D0122E2AD119E0B8F5881F19D006DC7B
:100C4000B8F5803F15D0B8F5801F1FD111E0B8F579
:100C5000001F0ED0B8F5041F18D10AE0CB6815E0CC
:100C6000CB681B1D12E0CB6808330FE0CB680C3358
:100C70000CE08B682BB1012B4FF0080303D04561CA
:100C800004E0042302E0056100E00023FF2A01D80C
:100C9000064601E000F104064FEA840501D9A5F1FA
:100CA0002005D6F8008007FA05FC28EA0C0803FAAC
:100CB00005F548EA0508C6F800804D68ED0070D5D6
:100CC0003E4DAE6946F00106AE61AD6924F0030603
:100CD00005F0010500953A4D06EB050CDCF80850CF
:100CE000A607360F07FA06F825EA0805DFF8D480CC
:100CF000404503D14FF0000825E052E0DFF8C880FE
:100D0000404502D14FF001081DE0DFF8C0804045AA
:100D100002D14FF0020816E0DFF8B480404502D15E
:100D20004FF003080FE0DFF8AC80404502D14FF0F0
:100D3000040808E0DFF8A080404502D14FF0050824
:100D400001E04FF0060808FA06F848EA0508CCF872
:100D500008804D68D9F80060ED034D4601D5164373
:100D600000E096432E604D68DAF80060AD0355460A
:100D700001D5164300E096432E604D68DBF8006015
:100D8000ED025D4601D5164300E096432E604D68A6
:100D9000DEF80060AD02754601D5164300E09643CB
:100DA0002E60641C0A681646E2407FF429AFBDE855
:100DB000F88F0000000401400000111000100240F4
:100DC0000000014000080140000C014000100140FB
:100DD0000014014000180140001C014001488068D7
:100DE000704700006000002070B504001BD094F82C
:100DF0003D00002520B984F83C50204600F056FA0A
:100E0000242084F83D002068016821F00101016080
:100E100000F09AFB4D4A6168914201D84C4900E0CC
:100E20004C49884201D2012070BD4B492368B0FB78
:100E3000F1F15E6826F03F060E435E606368934200
:100E400006D94FF4967359434FF47A73B1FBF3F11B
:100E50002368491C1E6A26F03F0631431962616807
:100E6000914210D84900401EB0FBF1F2521CC2F36F
:100E70000B02042A01D2042022E0B0FBF1F0401C56
:100E8000C0F30B001CE0A368F3B301EBC10202EB5B
:100E90000116421EB2FBF6F2521C42F480421205C9
:100EA00049D093B301EBC10202EB0111401EB0FB2C
:100EB000F1F0401CC0F30B0040F4804040F40040CF
:100EC0002168CA694CF6FF739A431043C861D4E99C
:100ED0000701084321680A6822F0C0021043086035
:100EE000D4E9030101432068826848F2FF339A4342
:100EF00011438160D4E9050108432168CA6822F0E2
:100F0000FF021043C86001E00EE016E020680168AF
:100F100041F0010101602564202084F83D00256333
:100F200084F83E50002070BD01EB4106421EB2FB2A
:100F3000F6F2521CB3E70120C2E701EB4101401E6B
:100F4000B0FBF1F0401CC0F30B00B7E7A086010036
:100F500080841E0000093D0040420F002DE9FF4F34
:100F600083B09A46DDE9119793460446DDF8408048
:100F7000FFF734FF054694F83D0020286FD1192370
:100F800001227B492046009500F09AFE0028F5D109
:100F900094F83C00012862D0012084F83C002068CD
:100FA0000168C90703D1016841F0010101602168AE
:100FB000086820F400600860222084F83D0040208A
:100FC00084F83E0000262664C4F82480A4F82A9001
:100FD000608D20856748E062CDE9007553465A462A
:100FE0002046049900F089FD00287DD1208DDFF88E
:100FF000888168B1012814D0022820D020680168B7
:1010000041F4806101602068416980690090A0E03E
:101010002068416981690091016841F400710160B3
:1010200097E02068016821F48061016072B6206851
:10103000416981690091016841F400710CE0216807
:10104000086840F40060086072B6206841698169F0
:101050000091016821F48061016062B679E084E06A
:1010600003284FD801280BD002283B464FF000023E
:101070004146204600950ED000F022FEA0BB0FE0B6
:101080002A463946204600F09AFE68BB206800696F
:10109000616A087054E000F013FE28BB72B61AE0D3
:1010A0002068016821F48061016072B620680069DF
:1010B000616A0870606A401C6062208D401E208555
:1010C000608D401E60853B460022414620460095CB
:1010D00000F0F6FD40B92068016841F4007101603C
:1010E00020680069616A00E012E00870606A401CD4
:1010F0006062218D491E2185618D491E618562B620
:1011000021681BE02A463946204600F058FE18B1F7
:10111000012007B0BDE8F08F20680069616A08709F
:10112000606A401C6062218D491E2185618D491EC7
:10113000618521684A69D24352070AD4096901705E
:10114000606A401C6062208D401E2085608D401EBC
:101150006085208D002883D1202084F83D0084F80C
:101160003E6084F83C600020D3E70220D1E7000015
:10117000020010000000FFFF040001002DE9FF4FF6
:1011800083B09A46DDE9119793460446DDF8408026
:10119000FFF724FE054694F83D0020287FD119234F
:1011A000012240492046009500F08AFD002876D1B2
:1011B00094F83C00012872D0012084F83C0020689B
:1011C0000168C90703D1016841F00101016020688D
:1011D000016821F400610160212084F83D00402075
:1011E00084F83E0000262664C4F82480A4F82A90DF
:1011F000608D20852C48E062CDE9007553465A4643
:101200002046049900F0ECFC70B930E02A463946DB
:10121000204600F007FE58B1206C042804D1206855
:10122000016841F400710160012007B0BDE8F08F52
:10123000606A216800780861606A401C6062218DE4
:10124000491E89B22185628D521E628522685369CA
:10125000DB435B070BD469B100781061606A401C06
:101260006062208D401E2085608D401E6085208D2F
:101270000028CBD12A463946204600F0FBFC002846
:10128000CAD154F83D0B016841F40071016020207F
:1012900004F81E09E67766770020C6E7FFE702201C
:1012A000C3E70000020010000000FFFF10B586B089
:1012B0000021009101910291039100680F49884239
:1012C0001AD10F4CA06940F00800A061A0696946DE
:1012D00000F008000490C02000901220019003202C
:1012E00003900848FFF77EFCE06940F40010E061DD
:1012F000E06900F40010049006B010BD00540040F6
:1013000000100240000C014002488168027811443C
:101310008160704760000020074810B5016841F007
:1013200010010160032000F067F8002000F006F8CB
:1013300000F024F8002010BD0020024070B50D4DD3
:1013400004464FF47A712878B1FBF0F00A49096835
:10135000B1FBF0F000F0DEFA48B9102C07D2002201
:101360002146501E00F028F800206C6070BD01205E
:1013700070BD0000600000206C0000200C4808B523
:10138000816941F001018161816901F001010091F0
:10139000C16941F08051C161C06900F08050009086
:1013A0000448416821F0E06141F00071416008BDEE
:1013B0000010024000000140F0B40E4B1B680C46C8
:1013C000C3F30223C3F10705042D00D90425191D19
:1013D000072901D2002300E0DB1E012606FA05F1F1
:1013E000491E214099409E40761E16403143F0BC74
:1013F00000F0FCBF0CED00E0064900F007020868B1
:101400004FF6FF03184040EA0220034A10430860E9
:10141000704700000CED00E00000FA052DE9F047F0
:101420000F46050061D0434E306800F00700B84217
:1014300009D2306820F0070038433060306800F08F
:101440000700B84251D128683B4C810712D54007AC
:1014500003D5606840F4E06060602878000703D539
:10146000606840F4605060606068A96820F0F00037
:10147000084360602878C00728D06868012810D029
:101480002168022810D0890700292EDA616821F02E
:10149000030101436160FFF7A1FC804641F28839F6
:1014A0000DE021688903EFE78901EDE7FFF796FC7E
:1014B000A0EB0801494502D90320BDE8F087606828
:1014C000696800F00C00B0EB810FEFD1306800F0DC
:1014D0000700B8420BD9306820F00700384330606D
:1014E000306800F00700B84201D00120E5E7287815
:1014F000400705D56068E96820F4E0600843606053
:101500002878000706D56068296920F4605040EA11
:10151000C100606000F038F86168084AC1F3031147
:10152000515CC8400649086006480068FFF706FF9E
:101530000020C2E700200240001002408A5C000840
:101540006C000020640000200448054900684968D8
:10155000044AC1F30221515CC84070476C0000206E
:10156000001002409A5C0008044805490068496878
:10157000044AC1F3C221515CC84070476C0000208E
:10158000001002409A5C000812A185B00FC98DE8D6
:101590000F0014A0144A006804905168134801F029
:1015A0000C03042B10D0082B0ED1C1F38343C903C5
:1015B0001DF803000AD5516804AAC1F34041515CEB
:1015C0000A4A5043B0FBF1F005B070470849484360
:1015D000FAE7000002030405060708090A0B0C0DD0
:1015E0000E0F1010010200000010024000127A00DD
:1015F00000093D002DE9F84F040070D02078C04D5F
:10160000C00749D06868C0F38100012807D0686826
:10161000C0F38100022809D16868C00306D5286894
:10162000800339D560680028E7D035E06068B0F500
:10163000803F0BD010B1B0F5A02F11D0286820F456
:1016400080302860286820F4802002E0286840F478
:1016500080302860606890B1FFF7C0FB06460AE062
:10166000286840F480202860F0E700BFFFF7B6FB51
:10167000801B642873D828688003F7D50CE0FFF737
:10168000ADFB064605E000BFFFF7A8FB801B642802
:10169000F0D828688003F7D420789A4E80074FF05E
:1016A00001094FF0000839D5686810F00C0F07D019
:1016B0006868C0F38100022809D16868C00306D4B5
:1016C0002868800714D52069012808D110E0206916
:1016D000B0B1C6F80090FFF781FB074605E00AE1CC
:1016E000FFF77CFBC01B0228C4D828688007F7D509
:1016F0002868616920F0F80040EAC10028600DE028
:10170000C6F80080FFF76AFB074604E0FFF766FBB8
:10171000C01B022823D828688007F7D42078000748
:101720002CD57948A169D9B1C0F80090FFF756FBD4
:10173000074604E0FFF752FBC01B02280FD8686A77
:101740008007F7D571484FF4FA510068B0FBF1F00B
:10175000009000BF0098411E0091FAD20EE080E098
:10176000C0F80080FFF73AFB074604E0FFF736FBBE
:10177000C01B022875D8686A8007F7D42078400714
:1017800060D5E8690027C00008D4E86940F08050BF
:10179000E861E869012700F0805000905C4801682A
:1017A000C90513D40168834641F480710160FFF7D5
:1017B00015FB824606E000BFFFF710FBA0EB0A0016
:1017C00064284ED8DBF80000C005F5D5E068012894
:1017D0000AD008B1052813D0286A20F00100286239
:1017E000286A20F0040002E0286A40F00100286224
:1017F000E06841F2883B98B1FFF7F0FA82460BE0CF
:10180000286A40F004002862EEE700BFFFF7E6FA1E
:10181000A0EB0A0159455AD8286A8007F6D50CE092
:10182000FFF7DCFA824605E0FFF7D8FAA0EB0A01E1
:1018300059454CD8286A8007F6D41FB1E86920F0D2
:101840008050E861E06988B36968C1F381010229C9
:1018500044D00228C6F8608004D0FFF7BFFA0446DF
:1018600038E034E0FFF7BAFA074604E0FFF7B6FACB
:10187000C01B02282BD828688001F7D4206AB0F555
:10188000803F05D16868A16820F400300843686093
:10189000D4E908010843696821F4741108436860B9
:1018A000C6F86090FFF79AFA044606E025E000BF0C
:1018B000FFF794FA001B022809D828688001F7D5A1
:1018C0001BE000BFFFF78AFA001B022802D90320A1
:1018D000BDE8F88F28688001F4D40EE00128F7D025
:1018E0006868226A00F48031914204D1616A00F490
:1018F0007010884201D00120EAE70020E8E70000EC
:101900000010024000004242800442426C0000206D
:101910000070004010B5401EB0F1807F01D301205F
:1019200010BD4FF0E02460610F21601700F05EFDF4
:101930000020A06107202061002010BD70B50400C8
:1019400004D094F83900002510B106E0012070BDE4
:1019500084F83850204600F023F8242084F8390019
:101960002068C16821F40051C160204600F08AFC63
:101970002068016921F4904101612068416921F0EA
:101980002A0141612068C16841F40051C160E563EA
:10199000202084F8390084F83A00002070BD00004F
:1019A00030B585B00024009401940294039400683B
:1019B0001449884224D11448816941F480418161ED
:1019C000816901F480410491816941F004018161E0
:1019D00080690E4D00F0040004904FF400700090F8
:1019E000022001900320039069462846FFF7FAF889
:1019F0002815CDE90004694628460294FFF7F2F85D
:101A000005B030BD00380140001002400008014020
:101A10002DE9F843044690F839001F4616460D4656
:101A2000202850D1A5B19EB194F8380001284AD0A1
:101A3000012084F838004FF00008C4F83C802120D1
:101A400084F83900FFF7CAF9A6848146E68426E0C7
:101A50000120BDE8F883E08C401EE084A0684B467E
:101A6000B0F5805F4FF000024FF0800120460097F4
:101A700003D000F063FCE8B90DE000F05FFCC8B9EA
:101A800028882168C0F308004860206908B16D1CEF
:101A900005E0AD1C03E0216815F8010B4860E08CFF
:101AA0000028D8D14B46002240212046009700F064
:101AB00045FC08B10320CCE7202084F8390084F8E5
:101AC00038800020C5E70220C3E7FEE701684A69C5
:101AD000D24352050FD46FF480624A61002140F86E
:101AE000301F202242738173026942F004020261B6
:101AF000017301207047002070472DE9F84F04461C
:101B0000006889460B9D01689846174641F480613C
:101B100001602068016841F48071016000954FF018
:101B2000011A0022514620460A9B00F0C9F80028FD
:101B300053D1216809F0FE0008610AF1010B2B4620
:101B4000594620460A9A00F0EFF8F0BB2068416938
:101B5000806900902A4620460A9900F063F940B156
:101B6000206C042839D12068016841F400710160BB
:101B700033E0FEB2B8F1010F09D02168380A0861DC
:101B80002A4620460A9900F04DF90028E8D120683D
:101B900006612A4620460A9900F044F90028DFD160
:101BA0002068016841F4807101600095002251466F
:101BB00020460A9B00F084F838B9216809F0FF003C
:101BC00040F0010008612B4600E006E0594620463F
:101BD0000A9A00F0A9F8002800D00120BDE8F88F8B
:101BE0002DE9F843044600680D46DDE908970168D1
:101BF0009846164641F4807101604B4600224FF032
:101C000001112046009700F05BF8E0B9216805F06B
:101C1000FE0008613B464A461549204600F084F81C
:101C200088B920684169806900903A464946204653
:101C300000F0F8F850B1206C042804D12068016845
:101C400041F4007101600120BDE8F883F5B2B8F1FC
:101C5000010F09D02168300A08613A4649462046FA
:101C600000F0E0F80028E6D1206805610020EBE7ED
:101C70000200010070B516460D4604460DE02046F0
:101C8000FFF724FF08B1012070BD681C05D0FFF7E5
:101C9000A5F8801BA84207D835B120684069C04329
:101CA0004007ECD4002070BD002044F8300F202104
:101CB0006173A073216941F0200121612073E2E783
:101CC0002DE9F0471E4690460D460446C1F30747EE
:101CD000DDF8209008E0701C06D0FFF77FF8A0EB3D
:101CE0000900B0420FD876B12068012F18D0806962
:101CF00025EA00000004000C14D000214145EAD080
:101D00000020BDE8F087002044F8300F20216173E7
:101D1000A073216941F02001216120730120F0E7C7
:101D20004069E5E70121E9E72DE9F0479A46914648
:101D30000E46044600254FF02008C1F3074725E072
:101D400020684069C043400514D42068016841F40C
:101D50000071016021686FF480604861256384F838
:101D60003D8084F83E50206C40F00400206484F8EC
:101D70003C501FE0B9F1FF3F08D0FFF72FF8A0EB70
:101D80000A0149450CD8B9F1000F09D02068012F8C
:101D900013D0806926EA00000004000C0BD0CFE7C6
:101DA00044F8305F84F80D80A573206940F020006E
:101DB000206125730120BDE8F0874069EAE72DE93D
:101DC000F041002590460E460446202717E0406962
:101DD000C043C0060CD454F8301B6FF010004861AB
:101DE00044F810596777A577206A2062257717E0B5
:101DF000FEF7F4FFA0EB0800B04208D83EB120681F
:101E00004169C9434906E2D40020BDE8F08144F8A5
:101E1000305F6773A573206940F02000206125734F
:101E20000120F2E770B516460D4604460DE0204647
:101E3000FFF74CFE08B1012070BD681C05D0FEF70D
:101E4000CDFF801BA84207D835B120684069C04348
:101E50000006ECD4002070BD002044F8300F202193
:101E60006173A073216941F0200121612073E2E7D1
:101E70003EB54FF47A7300920124CDE901430A463E
:101E8000014623460148FFF769F83EBD780000206F
:101E90003EB54FF47A74CDE900320A460146029409
:101EA00001230248FFF75AF83EBD000078000020E9
:101EB0002DE9F84314461D460F4680466A46089EA3
:101EC000FFF7D6FF00281BD0611CFF20C4F10802D9
:101ED00000FA01F12A44521ED0400143C5F1080026
:101EE0008640F2B2C4F10700C2409DF800000840ED
:101EF00010438DF80000C2B23946404600F002F8A7
:101F0000BDE8F88317B583B04FF47A74012305AAAE
:101F10008DE81C000A4601460248FFF72FF906B07B
:101F200010BD0000780000203EB54FF47A74CDE972
:101F300000320A460146029401230248FFF71EF9C7
:101F40003EBD000078000020F8B515461C460E4640
:101F500007466A46FFF78CFF01209DF80010A84055
:101F60000CB1084301E021EA0000C2B28DF8002064
:101F700031463846FFF7C6FFF8BD10B5022000F025
:101F800011F8032000F020F8002000F014F80020E1
:101F900000F02FF8002000F026F8BDE810400020E7
:101FA00000F01BB808B50323009002226B21D0205B
:101FB000FFF77EFF08BD08B50223009004221C2114
:101FC000D020FFF775FF08BD08B50223009004225A
:101FD0001B21D020FFF76CFF08BD034601223721EB
:101FE000D020FFF7B1BF034605226A21D020FFF7BA
:101FF000ABBF034606226B21D020FFF7A5BF000030
:102000000D4808B5816941F020018161816901F0C5
:1020100020010091816941F004018161816901F031
:1020200004010091816941F008018161806900F03B
:102030000800009008BD0000001002400D4810B5D7
:102040000B4901600C49416000214FF480428160DE
:10205000C0E9031241618161C1610162FEF7C4FE02
:10206000002803D0BDE81040FEF7A9BD10BD000058
:102070000054004078000020801A06000C4810B57B
:102080000A4901604FF4E1314160002181600C2276
:10209000C160C0E904128161C161FFF74FFC0028F3
:1020A00003D0BDE81040FEF78ABD10BD00380140E6
:1020B000CC000020FEE77047704700002DE9F04794
:1020C00088B0474C07A8CDE9004004F1220106ABD7
:1020D00002AA881F01F00EFB2088C0057DD502985A
:1020E000FEF78FFA6FF01D063146FEF765F90546DB
:1020F00060600398FEF785FA3146FEF75DF9804689
:10210000A0600498FEF77DFA3146FEF755F90746C0
:10211000E0600598FEF775FA3146FEF74DF9064680
:10212000206101212846FEF747F93946FEF7D4F829
:1021300005464FF0404739464046FEF7CDF8314658
:10214000FEF7CAF82946FEF76FF8FEF795FA00F099
:1021500079FEDFF890904FF0663842464B46FEF726
:10216000DEF9FEF79CFA6061E06801210546FEF7A2
:1021700023F982462946FEF7AFF80546A06839469E
:102180000646FEF7A9F83146FEF7A6F82946FEF7FF
:102190009DF84FF07E51FEF747F8FEF76DFA0746BF
:1021A0000D4601216068FEF707F93146FEF794F805
:1021B000064650462169FEF78FF83146FEF734F89F
:1021C000FEF75AFA3A462B4601F084F842464B464F
:1021D000FEF7A5F9FEF763FAA06108B0BDE8F08745
:1021E0002C00002066A64C407047FFF78DB830B534
:1021F0008FB028216846FDF7FFFF14210AA8FDF7DC
:10220000FBFF01210804CDE90010002402940225FF
:102210000491CDE907504FF4E01009906846FFF7AC
:10222000E9F90F20CDE90A056802CDE90C40022149
:102230000AA80E94FFF7F2F80FB030BD0D48016800
:1022400041F00101016041680B4A114041600168A1
:102250000A4A11400160016821F48021016041684F
:1022600021F4FE0141604FF41F0181600449C00365
:1022700008607047001002400000FFF8FFFFF6FE04
:1022800008ED00E02DE9F041044600680169E268CC
:1022900021F44051114301612169A068084361693B
:1022A00008432168CA6841F20C639A430243CA603A
:1022B00020684169A26921F44071114341611E49BE
:1022C000206864253226884202D1FFF74DF901E0EB
:1022D000FFF73AF900EBC00101EB001160686FF005
:1022E00018078000B1FBF0F2B2FBF5F2B1FBF0F39E
:1022F0007A4303EB8202B1FBF0F306EB0212B2FB6E
:10230000F5F2B3FBF5F302F0F00202EB0312B1FBBE
:10231000F0F3B1FBF0F0B0FBF5F0784303EB800095
:1023200006EB0010B0FBF5F0216800F00F00104440
:102330008860BDE8F0810000003801402DE9F041DF
:10234000984617460E460446069D1DE0681C1BD0A5
:102350002DB1FEF743FDA0EB0800A84214D9206878
:10236000C16821F4D071C1602068416921F0010188
:102370004161202084F8390084F83A00002084F874
:1023800038000320BDE8F0812068006836EA0000CC
:1023900004D00020B842D9D00020F3E70120F9E7AB
:1023A000FEE700000FB4054B10B503A9044A0298DC
:1023B00000F06CF910BC5DF814FB0000893D0008CA
:1023C00070000020490050EAC12018BF04204A0DC7
:1023D00018BF40F0010040F2FF72B2EB515F08BF3E
:1023E00040F00200012808BF052070470907090EC8
:1023F000002804DB00F1E02080F80014704700F0B2
:102400000F0000F1E02080F8141D70472DE9F04125
:102410004F1E00EBC7010446D1E9000115461E46D8
:1024200037F006020DD02A463346FEF778F87F1EB5
:1024300004EBC703D3E90023FDF7CAFF37F0060218
:10244000F1D1022F25D0042F13D0062F18BFBDE8DD
:10245000F0812A463346FEF762F8D4E90A23FDF7F5
:10246000B7FF2A463346FEF75AF8D4E90823FDF7AA
:10247000AFFF2A463346FEF752F8D4E90623FDF7AC
:10248000A7FF2A463346FEF74AF8D4E90423FDF7AE
:102490009FFF2A463346FEF742F8D4E90223FDF7B0
:1024A00097FF2A463346FEF73AF8D4E90023BDE801
:1024B000F041FDF78DBF0122FEF778BAFDF788BF26
:1024C0000022134610461146FEF701BA024A0020C8
:1024D0001107FEF76BBA000001FDFFFF02E008C81C
:1024E000121F08C1002AFAD170477047002001E08E
:1024F00001C1121F002AFBD170470000014908608A
:1025000070470000740000202DE9FF5F82B00021B9
:10251000DDE90430020DDDF840B0034318D044F685
:102520001050A2F2FF3242431514119801281FD017
:10253000A5EB0B00401C5FEA000A4FF000064E4F6F
:10254000DFF83891B046504615D5CAF1000413E0C3
:10255000119801244AA3012801D16FEA0B010298C6
:10256000119AC0E90031C0E9024206B0BDE8F09F0F
:10257000CBF10000DFE704460021404A491842EB56
:102580000450CDE9001012E0E00707D032463B4688
:1025900040464946FDF7C3FF8046894632463B46E2
:1025A00010461946FDF7BBFF06460F466410002C87
:1025B000EAD1DDE90401DDE90023BAF1000F06DA12
:1025C000FDF7ADFF42464B46FDF7A9FF05E0FEF7DC
:1025D0007EF942464B46FEF77AF904460E46002243
:1025E000284BFEF713FA03D84FF0FF30014607E0FF
:1025F0000022254B20463146FDF7EAFEFEF7EDF9B5
:10260000102409E0002C0ADB0A220023FEF779F8E7
:10261000039B30321A55641E50EA0102F2D1641C49
:10262000039AC4F111031444119A012A03D0012220
:1026300008430DD10AE0084304D000204FF0110BED
:10264000119072E7A3EB0B056D1E0DE05B4504DDF9
:102650004FF0000205F1010504E003DA4FF000023B
:10266000A5F10105002AECD002981199C0E90231C8
:10267000C0E9004579E70000000014400000F03F89
:10268000300000000000F0430000E03F2DE9FF4F64
:1026900095B09B468946064600250FE2252877D14E
:1026A00000242746F84A0121059400E0044316F867
:1026B000013F203B01FA03F01042F7D130782A287D
:1026C00011D06FF02F033078A0F13002092A16D80C
:1026D000059A44F0020402EB820203EB420210442A
:1026E000761C0590EFE759F8042B0592002A03DACF
:1026F000504244F40054059044F00204761C3078B3
:102700002E2816D116F8010F44F004042A280DD003
:102710006FF02F023078A0F13003092B09D807EBB6
:10272000870302EB4303C718761CF3E759F8047BD1
:10273000761C30786C280FD006DC4C2817D068281F
:102740000DD06A2814D104E0742810D07A280FD153
:102750000DE044F400140AE044F4801401E044F471
:1027600040147278824202D104F58014761C761CE3
:10277000307866280BD013DC582877D009DC002885
:1027800075D04528F6D04628F4D047281AD19DE1C7
:1027900018E0632835D0642879D0652812D195E1F6
:1027A000702873D008DC6728F1D069286FD06E28B4
:1027B0000DD06F2806D1B5E073282CD0752875D0C0
:1027C000782874D05A46179990476D1C75E1C4F368
:1027D0000250022809D003280DD0D9F8001004288F
:1027E0000DD00D6009F1040967E1D9F80010EA176E
:1027F000C1E90052F6E7D9F800100D80F2E70D703C
:10280000F0E719F8041B8DF8001000208DF8010086
:10281000EA46012003E059F804AB4FF0FF306107AE
:102820004FF0000102D40DE008F101018846B942E1
:102830000FDA8045F8DB1AF808100029F4D108E017
:1028400008F1010188468142FADB1AF808100029D4
:10285000F6D105985B46A0EB080721463846179A43
:1028600000F094FA284400EB080507E04DE029E168
:102870000DE01AF8010B5A4617999047B8F1010874
:10288000F7D25B4621463846179A13E142E00A2206
:102890000092C4F302524FF0000A022A08D059F8FD
:1028A00004CB032A4FEAEC710AD00DE029E02AE0BC
:1028B00009F1070121F00702F2E802C1914609E09F
:1028C0000FFA8CFC4FEAEC71042A03D14FFA8CFC0E
:1028D0004FEAEC71002907DA0A460021DCF1000C0E
:1028E00061EB02012D2202E0220504D52B228DF896
:1028F0000420012203E0E20701D02022F7E79046FE
:1029000059E00A2102E010220DE010214FF0000AE8
:1029100000910BE010224FF0000A44F00404082755
:10292000009203E008224FF0000A0092C4F3025222
:10293000022A05D059F804CB0021032A08D009E067
:1029400009F1070121F00702F2E802C1914605E012
:102950001FFA8CFC042A01D10CF0FF0C4FF0000888
:10296000220728D5702806D0009B83F0100353EA75
:102970000A0305D00EE040228DF80420012208E071
:102980005CEA010206D030228DF804208DF80500A3
:1029900002229046009B83F0080353EA0A030AD1FF
:1029A0005CEA010201D1620705D530228DF80420CE
:1029B0004FF001087F1E582804D034A003900EA8C1
:1029C00002900DE036A0F9E753466046009AFDF705
:1029D00098FE84460398825C0298401E0290027022
:1029E0005CEA0100F0D1029806A9081A00F1200A59
:1029F000600702D524F4803400E00127574502DD4A
:102A0000A7EB0A0000E0002000EB0A010090059807
:102A10004144401A0590E00306D45B462146179ACC
:102A2000059800F0B3F90544002706E001A85A46CE
:102A3000C05D179990476D1C7F1C4745F6DBE0038E
:102A40000CD55B462146179A059800F09FF905447E
:102A500004E030205A46179990476D1C0099481E93
:102A600000900029F5DC08E0029802995A460078A7
:102A7000491C0291179990476D1CBAF10001AAF107
:102A8000010AF1DC65E10000092801003031323330
:102A9000343536373839616263646566000000009A
:102AA0003031323334353637383941424344454684
:102AB0000000000000F058F90544761C307800282A
:102AC0007FF4ECAD19B02846BDE8F08F620700D462
:102AD000062709F1070222F0070CFCE80223E14671
:102AE00003F000485FEA080C02D00FF2702C0DE0F2
:102AF0005FEA045C02D50FF2682C07E05FEAC47C51
:102B000002D00FF2602C01E0AFF2700C4FF0FF38F2
:102B100023F00043CDF850C065280CD006DC4528D2
:102B200009D046281DD047283DD13DE0662818D061
:102B300067287ED138E00021112F01DB112000E051
:102B4000781CCDE9000106A90EA8FFF7DDFCDDE940
:102B50000F010E9A03910021009207F1010A0491DE
:102B60004DE04FF000400097CDE9011006A90EA8F6
:102B7000FFF7CAFCDDE90F0203920E9B11990022B8
:102B8000DDF80CA00093049211B9791C00EB010A46
:102B9000B7EB0A0004D4C0F1FF3007F1010A04903A
:102BA000AAEB0700019044E0012F00DA0127002181
:102BB000112F01DD112000E03846CDE9000106A902
:102BC0000EA8FFF7A1FCDDE90F010E9A0391002189
:102BD00004910092BA4621070CD40399514500DABA
:102BE0008A46BAF1010F05DD009AAAF10101515C94
:102BF000302908D0B84202DA10F1040F06DA0121B8
:102C0000CDE9011015E0AAF10101E9E7002805DC92
:102C1000049901440491AAEB000102E0411C5145D2
:102C200000DD8A460499401A401C01904FF0004094
:102C30000290200704D40198504501DBCDF80480B0
:102C400000208DF84F0002980DF14F07B0F1004FB2
:102C500025D02B200E9002984FF0020800280CDAA5
:102C6000404202902D200E9007E00A210298FDF7C5
:102C700032FD3031029007F8011DB8F10001A8F1D2
:102C80000108F2DC02980028EFD1791E0E98087036
:102C9000307800F0200040F0450007F8020D12A83F
:102CA000C01B00F107081498007800B1012000EB68
:102CB0000A01019801EBE07105984144401A401E59
:102CC0000590E00306D45B462146179A059800F06C
:102CD0005DF805441498007818B15A461799904742
:102CE0006D1CE00324D55B462146179A059800F039
:102CF0004DF805441CE00498002807DBDDE90301DA
:102D0000884203DD0098405C179901E01799302054
:102D10005A469047049805F10105401C049001981B
:102D2000401E019004D12E205A46179990476D1CE1
:102D3000BAF10001AAF1010ADDDC05E017F8010B88
:102D40005A46179990476D1CB8F10001A8F1010887
:102D5000F4DC5B462146179A0598ABE62D0000008F
:102D60002B000000200000002DE9F0410446002562
:102D70001E461746880404D405E039462020B04793
:102D80006D1C641EF9D52846BDE8F0812DE9F0419F
:102D9000044600251E469046C80301D5302700E0B2
:102DA0002027880404D505E041463846B0476D1C0D
:102DB000641EF9D52846BDE8F08100002DE9FE4FDC
:102DC00007460E460025684600F0EAFF00246FF033
:102DD0000F0AE8464FF0010957F8241056F824006E
:102DE000081A00D54042FDF70CFC5146FDF7E4FA05
:102DF00058F8241011F0FF4F0FD0FDF79FFA4FF055
:102E00007E51FDF763FAFDF737FC20F00040FDF737
:102E1000F8FB0949884205DC07E0084908440849ED
:102E2000884202D309FA04F00543641C032CD3DB67
:102E30002846BDE8FE8F0000295C0F3E666666C12D
:102E40009A99D9002DE9F04D8D4F21F0004A86B0B6
:102E500005460C46BA452ADBAAEB070028430AD0F0
:102E60008848824501DC1AD1CDB106B02846BDE8BC
:102E7000F04DFFF720BB844A844B2846FDF74FFBFB
:102E800007460E46824A834B28462146FDF747FBFC
:102E900006B03A463346BDE8F04DFDF799BA012039
:102EA000FFF72CFB06B0BDE8F04DFFF709BB7A48F1
:102EB000824542DABAF1795F0BDA2846FFF782FAE7
:102EC000042808BFFFF702FB284606B02146BDE8EC
:102ED000F08D2A460B461046FDF721FB834602463D
:102EE0006E480E460B4606217844FFF78FFA5A4685
:102EF0003346FDF714FB804669488A465A463346F6
:102F000004217844FFF782FA5A463346FDF707FB5F
:102F100000223B46FDF75CFA02460B46404651460E
:102F2000FDF7D5FC2A462346FDF7F9FA06B02A46F6
:102F30002346BDE8F04DFDF74BBA284624F000418A
:102F400000223D463B46FDF7E7FA4FF0FF32FDF722
:102F50002DFD0646024653480F460B46062178448F
:102F6000FFF754FA32463B46FDF7D9FACDE90001A6
:102F70004D4832463B4604217844FFF747FA324633
:102F80003B46FDF7CCFA00222B46FDF721FA83469B
:102F900002913046394602F02FF8804643480D46EC
:102FA000504517DCDDE900015A46029BFDF78FFC16
:102FB00042462B46FDF7B3FA42462B46FDF708FA88
:102FC0000122FDF7F3FC304A304BFDF7A2FA304AFC
:102FD000304B4CE04FF0000A52460B464046FDF79E
:102FE000F7F9CDE9031052462B4610461946FDF776
:102FF00096FA32463B46FDF78FFADDE90332FDF7DC
:1030000066FC06460F46DDE900015A46029BFDF7C5
:103010005EFC83460091012230463946FDF7C6FC2E
:10302000194A1A4BFDF778FA06460F460122404628
:103030002946FDF7BBFC5A46009BFDF770FA324665
:103040003B46FDF766FA06460F46012250462946E2
:10305000FDF7ACFC0E4DDFF858802A464346FDF7DD
:103060005BFA32463B46FDF757FA2A464346FDF7E0
:1030700053FA002CD8BF81F0004106B0BDE8F08DB6
:103080000000F03F0000F07F075C143326A6913C5F
:10309000182D4454FB21F93F0000E03FBC2D0000F7
:1030A000D22D0000462D00005C2D00003333EF3F91
:1030B000FB21E93F2DE9F84F04460D4621F0004081
:1030C00000917349814211DC7249884201DC06D1CA
:1030D0002CB120462946BDE8F84FFFF7ECB96E4801
:1030E000002DCCBF6D496E49BDE8F88F6D49814216
:1030F00011DD6D498142D8BF4FF0FF366DDD2046AE
:103100002946FFF75FF9042808BFFFF7DFF92046DB
:103110002946BDE8F88F6549654F25F00045814295
:1031200033DD6449814219DD002632464FF0804389
:1031300020462946FDF74CF980468A460122204662
:103140002946FDF733FC00223B46FDF7E2F94246F3
:103150005346FDF7BCFB04460D463EE00126002227
:10316000BA463B4620462946FDF732F980460F46CF
:103170000022534620462946FDF7CBF942463B46FE
:10318000FDF7A5FB04460D4627E04B4981421BDDB8
:10319000DFF828A102260022534620462946FDF7E3
:1031A000BEF900223B46FDF713F980460F46002288
:1031B000534620462946FDF7ACF942463B46FDF70B
:1031C00086FB04460D4608E0032622462B460020D7
:1031D0003B49FDF77CFB04460D4622462B46104634
:1031E0001946FDF79CF98B46824602460B46FDF7D1
:1031F00096F907460246334888460B46062178442E
:10320000FFF704F952465B46FDF789F982462E48DE
:103210008B463A46434605217844FFF7F7F83A468D
:103220004346FDF77CF902460B46002E50465946B0
:103230000CDAFDF7CDF822462B46FDF770F901B008
:1032400022462B46BDE8F04FFDF766B9FDF7C0F802
:1032500022462B46FDF763F91C4A7A4402EBC6036B
:10326000D3E90023FDF755F922462B46FDF751F926
:10327000174A7A4402EBC603D3E90023FDF74CF961
:10328000009A002AB8BF81F00041BDE8F88F000025
:10329000000010440000F07F182D4454FB21F93F3A
:1032A000FB21F9BF0000DC3F0000203E0000F33F9F
:1032B0000000F03F0000E63F008003400000F83FC0
:1032C0000000F0BF5E2B00001C2B0000BA2A00009B
:1032D000822A00002DE9F04D9446CCF1000423F041
:1032E00000464CEA0404524F46EAD4749A46884693
:1032F00021F00042BC4206D8454240EA050442EAB9
:10330000D474BC4204D9BDE8F04D6246FFF7D6B88C
:10331000AAF14055A5F17F6555EA0C040BD00224B3
:1033200004EAAA74434DDFF810E144EAD87452EA83
:10333000000B04D00CE0BDE8F04DFFF7BBBE002C45
:1033400014BF012CBDE8F08D022C30D0032C32D0FC
:1033500056EA0C0B0AD0BE4220D1BA4209D126F05F
:10336000804622F080423346114617E000291ADBDE
:1033700025E0DFF8C8B0FB44002C04BFDBE9000106
:10338000BDE8F08D012C02BFDBE9000181F00041B6
:10339000BDE8F08D022C0AD0032C0CD0BA4212D119
:1033A000B8F1000F0BDA23482549BDE8F08D284617
:1033B0002449BDE8F08D28467146BDE8F08D1D48D2
:1033C0002149BDE8F08D921B12153C2AC4BF194853
:1033D0001D490EDCBAF1000FBEBF12F13C0F0020F8
:1033E000014606DB6246FDF772FA21F00041FFF765
:1033F00061FE002C08BFBDE8F08D012C04BF81F0F8
:103400000041BDE8F08D114A114B022C07D0FDF7A9
:1034100080F82A46BDE8F04D0A4BFDF77AB8FDF773
:1034200078F82A46BDE8F04D064BFDF775B8000068
:103430000000F07F182D4454FB2109C0162A00001B
:10344000FB21F9BFFB210940FB21F93F075C143345
:1034500026A6A13C08B560B120208DF800002820E8
:103460008DF8010030208DF8020038208DF803001F
:1034700004E0A32204216846FCF7B7FE6A46042153
:1034800040F69E2001F024FD01F0EAF908BD00009D
:103490003EB5044602208DF80000CA208DF80100D8
:1034A000E3208DF8020009208DF803006A4604210C
:1034B000682001F00DFDA3208DF80000610609D5FC
:1034C000C0218DF80110C8218DF80210C2218DF89D
:1034D000031005E08DF801008DF802008DF803005F
:1034E00014F4C07F09D0C4218DF80410CC218DF8CC
:1034F0000510C6218DF8061005E08DF804008DF842
:1035000005008DF806008DF808008DF807008DF88D
:1035100009006A460A2140F6A72001F0D9FCA0075D
:103520004FF0D80503D020208DF8000001E08DF881
:1035300000506A46012140F6B62001F0C9FCA00601
:1035400001D5012000E0002000F08EF814F4C07FC7
:103550001ED0E0050AD5B2208DF800008B208DF832
:103560000100B6208DF802009B2009E0B0208DF804
:10357000000080208DF80100B4208DF8020090201A
:103580008DF803006A46042140F6A22001F0A0FC59
:10359000E1074FF40B6022D0F8218DF800106A4645
:1035A000012101F095FCFA21072000F039FB0720EA
:1035B00000F004FB012000F021FB642000F0C4FBBC
:1035C0004FF4FA7000F0D0FBC821254800F0BEFA95
:1035D000282000F0D3FA0A2000F0E0FA05E08DF888
:1035E00000506A46012101F073FCA00703D5D920E1
:1035F0008DF8000001E08DF800506A46012140F28C
:103600003D7001F065FC600701D5012000E000205D
:1036100000F048F8E00601D5012000E00020FFF7A7
:1036200019FF104D44F00800688101F019F90020DD
:10363000A873600601D50620A87314F4C07F02D0D9
:10364000A87B801DA87314F0140F02D0A87B103043
:10365000A873A00702D0A87B001DA87300203EBD60
:1036600009E3CA020C0100200EB54FF4976310B1B4
:1036700006A107C901E008A207CA8DE807006A464B
:103680000921184601F024FC0EBD0000B8AAB38D34
:10369000B4980D355D000000B8AAAAAAB088C3C5C9
:1036A000C700000008B560B1C0208DF80000C2203E
:1036B0008DF80100C4208DF80200C6208DF80300AB
:1036C00004E08B2204216846FCF78FFD6A46042142
:1036D00040F6982001F0FCFB01F0C2F808BD0000A4
:1036E000C8234FF48062024940F6F63000F09ABFDA
:1036F000945000082DE9FF4F89B01746DDE91652B6
:1037000000244C4E884681462C80A246B07B6946F8
:1037100001F034F84FF0FF3B18B158460DB0BDE84A
:10372000F08F708910F0140F3CD0009909BA21F085
:10373000FF039DF803100B433B6001991B1409BA6A
:1037400021F0FF029DF807105B430A437A6002995B
:103750009DF80B4009BA21F0FF012143B960039C99
:10376000091424BA24F0FF0C9DF80F4012144CEAFF
:10377000040CC7F80CC04FEA2C47494302FB023245
:1037800007FB071111441024A1F17061B1F1007F12
:1037900004D901F065F8A5F800A0BEE7298841F436
:1037A000807129804206694611D50A19A41D138823
:1037B0005BBAA8F8003053885BBAA8F80230928848
:1037C00052BAA8F804202A8842F008022A8010F48D
:1037D000C07F11D00A19A41D13885BBAA9F8003064
:1037E00053885BBAA9F80230928852BAA9F804202B
:1037F0002A8842F070022A80800716D00C44E078B4
:1038000000F0C00500F03F016078C00706D0C8088E
:1038100001F007013268491C02B190476078000747
:1038200003D5716809B1A80988470C9801F07AFBA3
:10383000002073E70C0100202DE9FF41044603A896
:1038400000F0A6FDBDF80C00410CC3032F4802890F
:1038500002F00300550754F8200000D54042C2F39F
:10386000C105960654F8255000D56D42C2F3811665
:10387000D20554F8264000D56442A0FB0367C21766
:1038800002FB037200FB0120820042EA9670A5FB56
:103890000367EA1702FB037205FB0122950045EA64
:1038A0009672A4FB0367E51705FB037304FB013164
:1038B0008B0043EA9671030E8DF80030030C8DF8EF
:1038C0000130030A8DF802308DF80300100E8DF8D8
:1038D0000400100C8DF80500100A8DF80600080E83
:1038E0008DF80800080C8DF80900080A8DF80A0008
:1038F0008DF807208DF80B106A460C214FF42570C7
:1039000001F0E6FA04B0BDE8F08100000C010020EF
:1039100030B5044613A285B007CA8DE807004FF002
:10392000FF35C82C16D8C820B0FBF4F1491E080A90
:103930008DF80C008DF80D1003AA022140F216201C
:1039400001F0C6FA30B96A460C2140F6C12001F0F8
:10395000BFFA10B1284605B030BD0548848100206B
:10396000F9E70000FEF2ABC4AAF1DFDFBBAFDFDF97
:103970000C010020F8B53049098901F0030250F824
:1039800022404A0700D56442C1F3C1028B0650F8B9
:10399000222000D55242C1F3811350F82330C805CC
:1039A00000D55B42254984FB0140850045EA9470BF
:1039B00082FB0142A40F44EA820483FB0121950F9C
:1039C00045EA8105010E8DF80010010C8DF80110FB
:1039D000010A8DF802108DF803006A4604214FF4A5
:1039E000747001F075FA4FF0FF3688B9200E8DF82B
:1039F0000000200C8DF80100200A8DF802008DF8DF
:103A000003406A4604214FF4757001F061FA08B171
:103A10003046F8BD280E8DF80000280C8DF8010006
:103A2000280A8DF802008DF803506A4604214FF4ED
:103A3000767001F04DFAF8BD0C01002009E3CA02CE
:103A40002DE9FF4104463CA004F003030068029006
:103A50003AA0006803903AA006683AA0056802A858
:103A6000C15C8DF80010C4F3C101425C8DF80120E7
:103A7000C4F38112805C8DF8020003A8C35C8DF84A
:103A80000430415C8DF80510805C8DF806006A46B4
:103A9000032140F2264001F01BFA4FF0FF37E0BB54
:103AA00001AA032140F22A4001F012FAA8BBCDE995
:103AB000006560070BD59DF8000040F001008DF80F
:103AC00000009DF8040040F001008DF80400A006FD
:103AD0000BD59DF8010040F001008DF801009DF824
:103AE000050040F001008DF80500E0050BD59DF8BC
:103AF000020040F001008DF802009DF8060040F041
:103B000001008DF806006A4603214FF4886001F039
:103B1000DFF910B901AA032100E004E040F23140CE
:103B200001F0D6F918B1384604B0BDE8F081064876
:103B300004810020F8E700004CCD6C000CC92C007B
:103B400036567600264666000C0100204FF47A7245
:103B500090FBF2F008B54843010E8DF80010010CFF
:103B60008DF80110010A8DF802108DF803006A46E5
:103B700004214FF4AE7001F0ABF908BD0521B0FB94
:103B8000F1F008B5010A8DF800108DF801006A46C1
:103B900002214FF4AD7001F09BF908BD0521B0FB87
:103BA000F1F008B5010A8DF800108DF801006A46A1
:103BB00002214FF4AC7001F08BF908BD08B500216B
:103BC0008DF80010C10702D030218DF80010810758
:103BD00005D59DF8001041F00C018DF8001040074C
:103BE00005D59DF8000040F003008DF800006A46FE
:103BF00001214FF4A47001F06BF908BD08B560B164
:103C0000042800D90420401E8DF800006A460121D6
:103C100040F24F1001F05CF908BD0120F3E700000D
:103C20002DE9FC41054640074FF0FF367CD0B1F549
:103C3000C86F79D80846FCF7EDFC3E49FCF77EFBDF
:103C4000074601A800F086FB9DF80400022806D074
:103C500004280DD008282ED0102865D134E00E217C
:103C60003846FCF7A9FBFCF7F3FC84B2324907E0C5
:103C70000D213846FCF7A0FBFCF7EAFC2F4984B283
:103C80003846FCF729FBFCF7E3FC210A8DF800100D
:103C900080B28DF80140010A8DF802108DF8030002
:103CA000E8076C4620D0224602214FF4EA7001F06A
:103CB0000FF9C8BB11E00C213846FCF77DFBFCF77F
:103CC000C7FC84B21E49DBE70B213846FCF774FBC6
:103CD000FCF7BEFC84B21B49D2E7A21C02214FF4C0
:103CE000927001F0F5F8F8B9A8070DD56A460221DF
:103CF0004FF4EC7001F0ECF8B0B9A21C02214FF4C3
:103D0000947001F0E5F878B9680710D56A46022189
:103D10004FF4EE7001F0DCF830B9A21C02214FF430
:103D2000967001F0D5F810B13046BDE8FC81002056
:103D3000FBE7000000004843000040460000C0458B
:103D4000000040450000C0440521B0FBF1F008B57B
:103D5000010A8DF800108DF801006A4602214FF427
:103D6000EF7001F0B5F808BD0521B0FBF1F008B522
:103D7000010A8DF800108DF801006A4602214FF407
:103D8000ED7001F0A5F808BD13B54FF6FF730122E1
:103D900069460248FDF73CFE00981CBDCC0000209F
:103DA0002DE9FE430646264801AB042240680D215A
:103DB000007800F09DFA10B10720BDE8FE839DF861
:103DC00004101C2000EAD1029DF80710DFF874905F
:103DD000C1F301131A438DF800209DF80520C1F3AB
:103DE000810300EAD2021A438DF801209DF80620D3
:103DF00001F0030100EAD20008430024124F8DF8BD
:103E00000200A0466D46285D10B146F824900AE0F5
:103E100046F824800DE000BF56F824003946FCF730
:103E20005BFA46F82400285D401E10F0FF0028557C
:103E3000F2D1641CE4B2032CE5D30020BDE70000FE
:103E4000000000207B14AE3E1D5A843F2DE9FE4F3A
:103E500005460120C14E8DF800004FF000088DF896
:103E6000018030680C461746817C70686B460222E0
:103E7000007800F041FA4FF0FF3A00287AD1C820CC
:103E8000FCF79EFE8DF8008030686B460122C17BF6
:103E90007068007800F030FA0028EFD130686B4687
:103EA000012241797068007800F026FA0028E5D1F7
:103EB00030686B460122817C7068007800F01CFA43
:103EC0000028DBD130686B460122C17D7068007824
:103ED00000F012FA0028D1D130686B460122017936
:103EE0007068007800F008FA0028C7D14FF00C097C
:103EF0008DF8009030686B46012201797068007877
:103F000000F0FAF9002835D10F20FCF759FEB06A0D
:103F10006B460122407A8DF8000030688178706825
:103F2000007800F0E9F9002824D1B06A6B4601223C
:103F3000007A8DF80000306841787068007800F0F1
:103F4000DBF9002873D1B06A807A0FB140F0E0004D
:103F50008DF8000030686B46012281797068007826
:103F600000F0CAF9002862D12FB1B06AC07A40F0DF
:103F7000E00001E04AE018208DF8000030686B4650
:103F80000122C1797068007800F0B6F9F0BB17B172
:103F9000C820FCF715FE40208DF8000030686B4605
:103FA000012201797068007800F0A6F970BB7820D2
:103FB0008DF8000030686B46012241797068007806
:103FC00000F09AF910BB3220FCF7FAFD8DF8008062
:103FD000306847466B46417970680122007800F0EE
:103FE0008BF998B931687068B046897A00786B4669
:103FF000022200F07DF948B9BDF80000AF6040BA78
:10400000B0FBF9F06F60C6B22F6000E00FE0A76070
:1040100067602760002739E0D8F80010D8F804005E
:104020006B46C97A00780C2200F062F910B1504654
:10403000BDE8FE8FBDF80000236840BA02B2BDF8AB
:104040000200BDF804101A44226040BA626800B24F
:104050001044606049BAA06809B20844A060BDF885
:1040600006002B6840BA02B2BDF808001A4440BAF4
:1040700001B2BDF80A002A606A6840BA114469605A
:10408000A96800B208447F1CFFB2A860B742C3D33E
:1040900028688322C117090441EA10410004002363
:1040A000FCF762F832460023FCF75EF82860686887
:1040B0008322C117090441EA104100040023FCF7E0
:1040C00053F832460023FCF74FF86860A868832253
:1040D000C117090441EA104100040023FCF744F829
:1040E00032460023FCF740F8A86020684FF40065D2
:1040F000C117090441EA104100042A460023FCF7D5
:1041000033F832460023FCF72FF8206060682A4617
:10411000C117090441EA104100040023FCF724F808
:1041200032460023FCF720F86060A0682A46C117D9
:10413000090441EA104100040023FCF715F8324657
:104140000023FCF711F8A060002802DDA0F5803004
:1041500001E000F58030A060002069E70000002049
:104160002DE9F84F814630488846002540686B4667
:10417000032200780D2100F0BBF810B10720BDE844
:10418000F88F9DF80000002400F01F008DF800005B
:104190009DF801006FF00F0B00F01F008DF801007B
:1041A0009DF802006E4600F01F008DF802004FF0EF
:1041B000010A00BF59F8241058F82400081A00D545
:1041C0004042FCF71EFA5946FCF7F6F80746305D08
:1041D000E0B1164802E01649FCF77EF8315D491E51
:1041E00011F0FF013155F6D101463846FCF7A6F82B
:1041F0004FF07E51FCF76AF8FCF73EFA20F00040E1
:10420000FCF7FFF90B49884205DC07E00A4838440F
:10421000B0F1D97F02D90AFA04F00543641C032CDB
:10422000C8DB2846ABE70000000000200000C841C2
:1042300054E3853F295C0F3E0000E0BE90F900107A
:10424000002902DD4FF00000704702DA4FF0040051
:10425000704790F90110002902DD4FF0010070470E
:1042600002DA4FF00500704790F90200002802DDE5
:104270004FF00200704702DA4FF0060070474FF02F
:1042800007007047FDF748F8FDF7B1FFFDF7B8FEEE
:10429000FDF7D4FEFDF7F2FEFDF76FFEFCF732FCF2
:1042A0000B4C0C4DFDF70AFF2068FCF7E5F90246C0
:1042B0000B4609A0FEF776F82868FCF7DDF9024600
:1042C0000B4608A0FEF76EF83220FCF779FCE9E710
:1042D000400000204400002050697463683A2025A3
:1042E000660D0A00526F6C6C3A2025660D0A0000BC
:1042F0004006000EFDF7CCBD4006000EFDF714BED3
:104300002DE9F041124C20F00101002594F8240021
:1043100010B10020BDE8F081A07A4FF0FF3668B1FF
:104320000840277C2074884200D0354641B10120E6
:1043300000F036FE00F094FA38B127743046E9E711
:10434000207D00B1012000F02BFE2846E2E70000AE
:10435000000000200D494A7A42B1012A08D0022A01
:104360000FD0032A0FD04FF0FF307047022200E039
:1043700004220270C97C11B11106C90D0170002020
:1043800070470822F5E71022F3E700000000002044
:104390000F494A7A42B1012A09D0022A11D0032AD0
:1043A00012D04FF0FF3070474FF4804201E041F6E9
:1043B0009C720280C97C11B1C2F34E0101800020C1
:1043C00070474FF48052F4E74FF40062F1E70000C9
:1043D000000000200B49097A39B1012907D00229D0
:1043E0000AD003290BD0002103E0FA2101E04FF4A9
:1043F000FA710180002070474FF47A71F9E74FF4A9
:10440000FA61F6E7000000200A49097A41B1012962
:1044100008D002290AD003290AD04FF0FF30704794
:10442000054900E005490160002070470449FAE7AA
:104430000449F8E700000020000003430000834225
:1044400033330342333383410C49C97A072913D2EA
:10445000DFE801F01204060A0C0E1000BC2100E097
:1044600062210180002070472A21FAE71421F8E731
:104470000A21F6E70521F4E70021F2E70000002019
:10448000054991F8242012B14FF0FF307047C989D7
:104490000180002070470000000000202DE9FC4151
:1044A0004C4C80208DF8000020686B460122817CF6
:1044B00060680078FFF720FF4FF0FF37002832D107
:1044C0006420FCF77DFB00258DF8005020686B46CA
:1044D0000122817C60680078FFF70EFF002870D110
:1044E00020686B460622817D60680078FFF700FF38
:1044F000002866D19DF805009DF80310C007400F05
:1045000001F0010140EA41019DF801004FF0010670
:1045100000F00100014309D0012905D0022915D07E
:104520002DA0FDF73FFF4CE0E67410E020686B46DD
:104530000122C17860680078FFF7DAFE40BB9DF881
:10454000000010F00F0020D0042822D0E574FF20D6
:1045500004F80A0F4FF6FF7104F8020C04F8010C7E
:104560006070A180A0712072A67026766576E572D3
:10457000A572E56025616561A576E576A5834FF4B2
:10458000FA6000F06BFB18B907E01D48FDF70AFF61
:1045900017E01CA0FDF706FFC6E7022000F080FA36
:1045A00078B92A2000F0C2FB58B9322000F0F4FBA1
:1045B00038B90020FFF7A4FE18B9002000F0A4FAD3
:1045C00010B13846BDE8FC81002000F025FC002039
:1045D000F8E7000000000020556E737570706F7270
:1045E00074656420736F6674776172652070726F92
:1045F00064756374207265762025642E0A000000BD
:10460000985D000848616C662073656E7369746913
:1046100076697479207061727420666F756E642E8D
:104620000D0A00002DE9FF4FDFF89480064685B0A3
:1046300098F8250015460F464FF0FF39B0BBAFB3D1
:10464000002420E0301B102800DD102080B28346BB
:104650003A1901469246204600F03AFC30BB6A46C1
:104660005946204600F0D2F800BB50465A466946EB
:10467000FBF7CDFD20B16FF0010009B0BDE8F08F70
:1046800004EB0B0084B2B442DCD3280A8DF810008E
:104690008DF81150D8F80000444604AB817ED8F85C
:1046A000040002220078FFF727FE08B14846E4E73D
:1046B000012084F825000898E0840020DDE7000050
:1046C000000000202DE9F84305464FF0FF39282867
:1046D00044D80727284C00267DB1012000F0F4FAC9
:1046E00020208DF800004FF00108012D17D0052D76
:1046F00018D88DF8018005201FE0002000F0E4FAB2
:104700008DF800608DF8017020686B460222817C74
:1047100060680078FFF7F0FD00BB267529E08DF892
:104720000160E8E7142D04D802208DF801000A206A
:1047300003E003208DF80100142000F0F7FA9DF843
:1047400001006B4607EB80108DF801002068022203
:10475000817C60680078FFF7CFFD10B14846BDE866
:10476000F8830820A072267384F814800020FFF7D5
:10477000C7FD0020F3E70000000000202DE9F8430A
:10478000214C0646174694F8240089464FF0FF381E
:1047900090B3A07A80B320686B460222817A606869
:1047A0000078FFF7A5FD38BBBDF8000045BAB5425B
:1047B00002D2002038701FE060684188B5EB510FCD
:1047C00011D9216800786B46497C0122FFF790FDE2
:1047D00090B99DF80000C00605D500F041F86FF0D3
:1047E0000100BDE8F8832068F2B24B46C17A6068E8
:1047F0000078FFF77DFD08B14046F2E7B5FBF6F023
:10480000401E38700020ECE700000020F8B51600CC
:104810000D464FF0FF371FD0104CA17AE1B1010ACD
:104820008DF80010C0B28DF801004119606842890E
:10483000914211D8216800786B46097E0222FFF769
:104840005BFD48B92068EAB23346417D6068007874
:10485000FFF74EFD002800D03846F8BD00000020CC
:10486000F8B5524C4FF0FF36A07A00287CD00025D6
:104870008DF8005020686B460122C17B606800788B
:10488000FFF73AFD00286FD120686B46012241797D
:1048900060680078FFF730FD002865D120686B461E
:1048A0000122017960680078FFF726FD00287AD19F
:1048B00094F82400C8B30C208DF8000020686B46E3
:1048C0000122017960680078FFF716FD00286AD19F
:1048D000C0208DF80000A07AC00702D0E0208DF83B
:1048E000000020686B460122017960680078FFF7BC
:1048F00003FD002857D1607C18B102208DF800001C
:1049000001E08DF8005020686B460122C17B606891
:104910000078FFF7F1FC38BB8DF8005020686B463B
:10492000012241796068007839E0FFE704208DF8C2
:10493000000020686B460122017960680078FFF76B
:10494000DBFC88B9A07C80B9A07AC0070DD06020BC
:104950008DF8000020686B460122017960680078BC
:10496000FFF7CAFC00B902E01DE04020F0E7607CE0
:1049700018B101208DF8000001E08DF8005020688A
:104980006B460122C17B60680078FFF7B5FC50B927
:104990002068064B01224179606810330078FFF7E8
:1049A000ABFC002800D03046F8BD0000000000201D
:1049B0002DE9F047394C82468AB094F824000F461E
:1049C00020B1002000F00EF9012600E0002607A823
:1049D000FFF700FD06A8FFF7BDFC09A8FFF734FDAF
:1049E00008A8FFF74DFD94F80A9094F81080002570
:1049F000002239465046FFF729FA10B16D1C022DEE
:104A0000F6DB022D1AD00025012203A96846FFF724
:104A10001DFA10B16D1C022DF6DB022D0ED003A97C
:104A20003846FEF7CBF9C7B269465046FFF798FB08
:104A300010F0FF0F4FF0000502D002E0002503E068
:104A400001250FB945F00205FF2020726072E07267
:104A50004FF6FF71E181A072207401202073BDF830
:104A60001C0000F0FBF89DF8180000F019F8BDF8E4
:104A7000240000F05BF9BDF8200000F08DF94846F5
:104A800000F0CAF94046FFF73BFC16B1012000F0E8
:104A9000A9F80AB02846BDE8F08700000000002011
:104AA00038B5184C4FF0FF35A17A19B3022806D05B
:104AB000042806D008280ED010281BD10DE00020B5
:104AC00000E008208DF80000607A9DF80010B0EB3F
:104AD000D10F04D005E01020F4E71820F2E7002001
:104AE00038BD20686B460122C17960680078FFF705
:104AF00003FC08B1284638BD9DF80000C00860726C
:104B0000EDE7000000000020F8B5354C0546A07C1C
:104B1000A84201D10020F8BD31484FF0FF366B4666
:104B2000D0E900104FF001020979007835B3FFF7A2
:104B3000DFFB70BB9DF800006B4620F020008DF875
:104B4000000020680122017960680078FFF7D4FB3B
:104B5000F8B90320FCF734F802208DF8000094F82F
:104B6000220078B382202BE020686B460122017D71
:104B700060680078FFF7C0FB58B92EE0FFF7B8FB7C
:104B800038B9A07AC0079DF8000003D040F020009B
:104B900002E00CE020F020008DF8000020686B4659
:104BA0000122017960680078FFF7A6FB08B1304662
:104BB000F8BD0320FCF704F894F8220000B180202F
:104BC0008DF8000094F823000028CDD09DF8000057
:104BD00040F030008DF80000C6E7A5749AE70000A9
:104BE0000000002038B51C4C94F8241081421DD0E0
:104BF000002500B394F82500D0B1002000F0D0F9D2
:104C00000020FFF781FFE08C00F0C6F88DF800501F
:104C100060686B46012200782321FFF76DFB0120BD
:104C200084F8240000F0BCF9FFF71AFE002038BD1C
:104C30004FF0FF3038BD002000F0B2F9207C8DF835
:104C4000000060686B46012200782321FFF754FBC7
:104C500084F82450E8E700000000002038B5194C23
:104C60004FF0FF35A17A31B3FA2809D0B0F5FA7FB9
:104C700008D0B0F57A7F0FD0B0F5FA6F1BD10DE0F8
:104C8000002000E008208DF80000207A9DF8001038
:104C9000B0EBD10F04D005E01020F4E71820F2E7C4
:104CA000002038BD20686B46012281796068007859
:104CB000FFF722FB08B1284638BD9DF80000C00868
:104CC0002072EDE70000002038B5174C054694F837
:104CD0002300A84201D1002038BD0DB1302000E0F2
:104CE00000208DF80000A07C28B19DF8000040F065
:104CF00002008DF8000094F8220028B19DF8000011
:104D000040F080008DF8000020686B460122017D94
:104D100060680078FFF7F0FA10B14FF0FF3038BD4F
:104D200084F82350D7E700000000002038B5194C64
:104D30004FF0FF35A17A31B3BC2801D3012010E038
:104D4000622801D302200CE02A2801D3032008E0C6
:104D5000142801D3042004E00A2801D3052000E030
:104D600006208DF80000E07A9DF80010884201D1FD
:104D7000002038BD20686B46012281786068007889
:104D8000FFF7BAFA08B1284638BD9DF80000E07276
:104D9000EEE7000000000020F8B51E4D04464FF07D
:104DA000FF37A87A48B395F8240030BB287D4FF42C
:104DB0007A7648B164B1282C03D8E0B2FFF782FCC0
:104DC00026E00020FFF77EFC042C05D2042406E038
:104DD0000020FFF777FCF9E7B44200D93446B6FB70
:104DE000F4F0401E8DF8000028686B4601224178DF
:104DF00068680078FFF780FA08B13846F8BD9DF87A
:104E00000000401CB6FBF0F0E8814008FFF78EFF81
:104E10000020F8BD00000020F8B5054610F0700F26
:104E20004FF0000601D0012004E015B18DF80060BC
:104E300002E040208DF80000244C6B4601222068DF
:104E4000817C60680078FFF757FA4FF0FF3760BB4E
:104E50009DF8000020F0400020738DF80060680687
:104E600002D404208DF80000A80605D49DF80000A7
:104E700040F002008DF80000E80605D49DF800001F
:104E800040F001008DF80000280705D49DF80000CF
:104E900040F038008DF8000020686B460122C17C8C
:104EA00060680078FFF728FA10B1A6723846F8BD9E
:104EB00025B1082D02D00020FFF706FFA572267548
:104EC0003220FBF77DFE0020F8BD0000000000202E
:104ED000F8B516000D464FF0FF371FD0104CA17AE1
:104EE000E1B1010A8DF80010C0B28DF8010041193E
:104EF00060684289914211D8216800786B46097E2A
:104F00000222FFF7F9F948B92068EAB23346417D39
:104F100060680078FFF7F0F9002800D03846F8BD47
:104F200000000020704710B588B0694604A8FFF75C
:104F30003FFD072832D107A8FFF766FA0498FBF770
:104F400060FB07990C46FBF7C7F9FBF768FB049079
:104F50000598FBF756FB2146FBF7BEF9FBF75FFB15
:104F600005900698FBF74DFB2146FBF7B5F9FBF7DB
:104F700056FB069004A8FEF7FDFC03A8FFF708FA0D
:104F8000BDF80C0000994143009101994143019102
:104F90000299414368460291FEF74EFC08B010BDED
:104FA000F8B5144C0146224694F82460D2E9000278
:104FB00000235D1E56B179B1022111E0C17B10784A
:104FC0006B460122FFF798F968B90EE0A67A56B150
:104FD00011B1617C61B902E08DF80030EEE701218A
:104FE0008DF80010EAE72846F8BD9DF800006074CF
:104FF0000020F8BD000000202DE9F04106460F46D4
:10500000FBF72EFD041E0D4618BF0120284320F09B
:105010000040C0F17F6000F1E040C00F0ED0301CB6
:1050200018BF0120384320F00040C0F17F6000F13C
:10503000E040C00F04BF0120FDF760FA204629467A
:10504000BDE8F0816800000476005401F7FD00011E
:1050500075191A0C6A231B1C1F207274433B4138BC
:10506000393A6B6C376F06246D6E70008300000058
:105070000008000000010018320005000000204177
:105080000000D242295C0F3E9A99993E3333733F18
:10509000295C0F3E000070000000002400000002A8
:1050A0000003000000650054FFEF0000FA80000BD1
:1050B00012820001030C30C30E8C8CE914D540021F
:1050C00013710F8E3883F8833000F883258EF883B0
:1050D0003000F883FFFFFFFF0FFEA9D62400040075
:1050E0001A8279A10000003CFFFF000000100000C0
:1050F00038836FA2003E03304000000002CAE3097B
:105100003E80000020000000000000004000000081
:1051100060000000000C0000000C186E00000692F9
:105120000A16C0DFFFFF0256FD8CD377FFE1C4965D
:10513000E0C5BEAA00000000FFFF0B2B00001657C1
:10514000000003594000000000001DFA00026C1D21
:10515000000000003FFFDFEB003EB3B6000D2278F9
:1051600000002F3C00000000001942B5000039A2E9
:105170000000B365D90E9FC91DCF4C34300000002C
:10518000500000003BB67AE80064000000C8000050
:1051900000000000100000001000FA921000225ED3
:1051A000000D229F0001000000320000FF460000B9
:1051B00063D400001000000004D6000004CC0000FE
:1051C00004CC00000000107200000040000000004D
:1051D00000000000000600020005000700000000BB
:1051E00000640000000000000000000500050064ED
:1051F000002000000000000000000000000040004F
:105200000000030000000032F8980000FF65000075
:10521000830F0000FF9BFC00000000000000000066
:10522000000000000000000000000000000000007E
:10523000000000000000000000000000000000006E
:105240000000100040000000000000060000B26AEC
:10525000000200000001FB830068000000D9FC0090
:105260007CF1FF830000000000650000006403E89B
:1052700000640028000000250000000016A00000C7
:105280000000100000001000002F0000000001F4DA
:105290000000100000280000FFFF4581FFFFFA72A8
:1052A0000000000000000000004400050005BAC630
:1052B000004778A200000001000000000000060086
:1052C000000000140000254D002F706D000005AE99
:1052D000000C02D0000000000000000000000000F0
:1052E00000000000001B00000000000000000000A3
:1052F0000000000000640000000800000000000042
:10530000000000000000000000000000000000009D
:10531000000000000000000000000000000000008D
:10532000000000000000000000000000000000007D
:10533000000000000000000000000000000000006D
:10534000000000000000000000000000000000005D
:1053500000000000001B0000000000000000000032
:10536000000E000E00000AC700040000000000321A
:10537000FFFFFF9C00000B2B00000002000000015B
:1053800000000064FFE500000000000000000000D5
:10539000000000000000000100000000000100000B
:1053A000000000000001800000018000000180007A
:1053B000002426D3000000000000000000060010BA
:1053C0000096003C0000000000000000000000000B
:1053D000000000000C0A4E68CDCF770950166759BF
:1053E000C619CE820000000000000000000000008E
:1053F00000000000000000000000000017D784003B
:10540000030000000000000000000000C7938F9D13
:105410001E1B1C190000000000000000000000001E
:1054200000000000000000000000000002031885DA
:105430000000400000000003000000030000000026
:10544000000000004000000000000000000000001C
:10545000000000000000000000000000000000004C
:10546000000000000000000000000000000000003C
:105470000000000000000000677DDF7E72902E5566
:105480004CF6E6880000000000000000000000006C
:1054900000000000D8DCB4B8B0D8B9ABF3F8FAB368
:1054A000B7BB8E9EAEF132F51BF1B4B8B08097F168
:1054B000A9DFDFDFAADFDFDFF2AAC5CDC7A90CC9EC
:1054C0002C97F1A989264666B28999A92D557DB0F8
:1054D000B08AA896365676F1BAA3B4B280C0B8A8FE
:1054E0009711B28398BAA3F0240844106418B2B993
:1054F000B49883F1A329557DBAB5B1A38393F00085
:105500002850F5B2B6AA839328547CF1B9A38293AC
:1055100061BAA2DADEDFDB819AB9AEF5606870F1BC
:10552000DABAA2DFD9BAA2FAB9A38292DB31BAA25F
:10553000D9BAA2F8DF85A4D0C1BBAD83C2C5C7B8B4
:10554000A2DFDFDFBAA0DFDFDFD8D8F1B8AAB38DE2
:10555000B4980D355DB2B6BAAF8C96198F9FA70E71
:10556000161EB49AB8AA872C547CBAA4B08AB691F5
:10557000325676B28494A4C808CDD8B8B4B0F199A4
:1055800082A82D557D98A80E161EA22C547C92A49C
:10559000F02C5078F184A898C4CDFCD80DDBA8FC81
:1055A0002DF3D9BAA6F8DABAA6DED8BAB2B686967C
:1055B000A6D0F3C841DAA6C8F8D8B0B4B882A89289
:1055C000F52C548898F135D9F418D8F1A2D0F8F90F
:1055D000A884D9C7DFF8F883C5DADF69DF83C1D8CB
:1055E000F40114F1A8824EA884F311D182F5D99266
:1055F000289788F109F41C1CD884A8F3C0F9D1D9E4
:105600009782F129F40DD8F3F9F9D1D982F4C203C4
:10561000D8DEDF1AD8F1A2FAF9A88498D9C7DFF842
:10562000F8F883C7DADF69DFF883C3D8F40114F12F
:1056300098A8822EA884F311D182F5D99250978828
:10564000F109F41CD884A8F3C0F8F9D1D99782F1F4
:1056500049F40DD8F3F9F9D1D982F4C403D8DEDFC7
:10566000D8F1AD8898CCA809F9D98292A8F57CF137
:10567000883ACF944A6E98DB6931DAADF2DEF9D818
:105680008795A8F221D1DAA5F9F417D9F1AE8ED019
:10569000C0C3AE82C684C3A88595C8A588F2C0F1F0
:1056A000F4010EF18E9EA8C63E56F554F18872F4B0
:1056B0000115F19845856EF58E9E0488F142985A41
:1056C0008E9E068869F4011CF1981E1108D0F5041D
:1056D000F11E970202983625DBF9D985A5F3C1DAC8
:1056E00085A5F3DFD88595A8F309DAA5FAD88292C3
:1056F000A8F578F1881A849F26889821DAF41DF39A
:10570000D8879F39D1AFD9DFDFFBF9F40CF3D8FA92
:10571000D0F8DAF9F9D0DFD9F9D8F40BD8F3879FAC
:1057200039D1AFD9DFDFF41DF3D8FAFCA869F9F954
:10573000AFD0DADEFAD9F88F9FA8F1CCF398DB4529
:10574000D9AFDFD0F8D8F18F9FA8CAF38809DAAFB4
:105750008FCBF8D8F2AD978D0CD9A5DFF9BAA6F3A7
:10576000FAF412F2D8950DD1D9BAA6F3FADAA5F265
:10577000C1BAA6F3DFD8F1BAB2B68696A6D0CAF3FC
:1057800049DAA6CBF8D8B0B4B8D8AD84F2C0DFF10E
:105790008FCBC3A8B2B68696C8C1CBC3F3B0B488CA
:1057A00098A821DB718D9D71859521D9ADF2FAD82C
:1057B0008597A828D9F408D8F28D29DAF405D9F20A
:1057C00085A4C2F2D8A88D9401D1D9F411F2D8875A
:1057D00021D8F40AD8F28498A8C801D1D9F411D8F4
:1057E000F3A4C8BBAFD0F2DEF8F8F8F8F8F8F8F890
:1057F000D8F1B8F6B5B9B08A95A3DE3CA3D9F8D8EC
:105800005CA3D9F8D87CA3D9F8D8F8F9D1A5D9DF09
:10581000DAFAD8B18530F7D9DED8F830ADDADED88B
:10582000F2B48C99A32D557DA083DFDFDFB591A065
:10583000F629D9FBD8A0FC29D9FAD8A0D051D9F89B
:10584000D8FC51D9F9D879D9FBD8A0D0FC79D9FAAC
:10585000D8A1F9F9F9F9F9A0DADFDFDFD8A1F8F872
:10586000F8F8F8ACDEF8ADDE8393AC2C547CF1A8EC
:10587000DFDFDFF69D2CDAA0DFD9FADB2DF8D8A820
:1058800050DAA0D0DED9D0F8F8F8DB55F8D8A878EF
:10589000DAA0D0DFD9D0FAF8F8F8F8DB7DF8D89C98
:1058A000A88CF530DB38D9D0DEDFA0D0DEDFD8A879
:1058B00048DB58D9DFD0DEA0DFD0DED8A868DB70A7
:1058C000D9DFDFA0DFDFD8F1A888902C547C98A81E
:1058D000D05C38D1DAF2AE8CDFF9D8B087A8C1C17C
:1058E000B188A8C6F9F9DA36D8A8F9DA36D8A8F90D
:1058F000DA36D8A8F9DA36D8A8F9DA36D8F78D9D8D
:10590000ADF818DAF2AEDFD8F7ADFA30D9A4DEF987
:10591000D8F2AEDEFAF983A7D9C3C5C7F1889BA731
:105920007AADF7DEDFA4F8849408A797F300AEF20F
:105930009819A488C6A39488F632DFF28393DB0912
:10594000D9F2AADFD8D8AEF8F9D1DAF3A4DEA7F1FC
:10595000889B7AD8F38494AE19F9DAAAF1DFD8A833
:1059600081C0C3C5C7A39283F628ADDED9F8D8A3FA
:1059700050ADD9F8D8A378ADD9F8D8F8F9D1A1DAD3
:10598000DEC3C5C7D8A18194F818F2B089ACC3C5ED
:10599000C7F1D8B8B4B09786A8319B069907AB97E2
:1059A00028889BF00C201440B0B4B8F0A88A9A283C
:1059B0005078B79BA82951792470594469386448B4
:1059C00031F1BBAB88002C547CF0B38BB8A8042811
:1059D0005078F1B088B49726A85998BBABB38B0226
:1059E000264666B0B8F08A9CA82951798B2951794E
:1059F0008A2470598B2058718A4469388B394068E1
:105A00008A6448318B30496088F1AC002C547CF0BA
:105A10008CA804285078F1889726A85998AC8C0255
:105A2000264666F0899CA829517924705944693822
:105A3000644831A98809205970AB11384069A81908
:105A40003148608CA83C415C207C00F18798198625
:105A5000A86E767EA999882D557DD8B1B5B9A3DFFA
:105A6000DFDFAED0DFAAD0DEF2ABF8F9D9B087C461
:105A7000AAF1DFDFBBAFDFDFB9D8B1F1A3978E604A
:105A8000DFB084F2C8F8F9D9DED89385F14AB18342
:105A9000A308B5839A0810B79F10D8F1B0BAAEB07A
:105AA0008AC2B2B68E9EF1FBD9F41DD8F9D90CF199
:105AB000D8F8F8AD61D9AEFBD8F40CF1D8F8F8AD50
:105AC00019D9AEFBDFD8F416F1D8F8AD8D61D9F451
:105AD000F4ACF59C9C8DDF2BBAB6AEFAF8F40BD87B
